{
  "transactions": [
    {
      "hash": "0x100a6ce69e012c4659ee2c14d00e2401e31094640ee40d7e9a081e799edc10a5",
      "transactionType": "CALL",
      "contractName": null,
      "contractAddress": "0x779877a7b0d9e8603169ddbd7836e478b4624789",
      "function": "transferAndCall(address,uint256,bytes)",
      "arguments": [
        "0x8103B0A8A00be2DDC778e6e7eaa21791Cd364625",
        "3000000000000000000",
        "0x0000000000000000000000000000000000000000000000000000000000002e73"
      ],
      "transaction": {
        "from": "0x9c377256dfae057256fb94c7b3a2d1af6a1cc2c8",
        "to": "0x779877a7b0d9e8603169ddbd7836e478b4624789",
        "gas": "0x1b43f",
        "value": "0x0",
        "input": "0x4000aea00000000000000000000000008103b0a8a00be2ddc778e6e7eaa21791cd36462500000000000000000000000000000000000000000000000029a2241af62c0000000000000000000000000000000000000000000000000000000000000000006000000000000000000000000000000000000000000000000000000000000000200000000000000000000000000000000000000000000000000000000000002e73",
        "nonce": "0x9",
        "chainId": "0xaa36a7"
      },
      "additionalContracts": [],
      "isFixedGasLimit": false
    }
  ],
  "receipts": [
    {
      "status": "0x1",
      "cumulativeGasUsed": "0x83c40e",
      "logs": [
        {
          "address": "0x779877a7b0d9e8603169ddbd7836e478b4624789",
          "topics": [
            "0xddf252ad1be2c89b69c2b068fc378daa952ba7f163c4a11628f55a4df523b3ef",
            "0x0000000000000000000000009c377256dfae057256fb94c7b3a2d1af6a1cc2c8",
            "0x0000000000000000000000008103b0a8a00be2ddc778e6e7eaa21791cd364625"
          ],
          "data": "0x00000000000000000000000000000000000000000000000029a2241af62c0000",
          "blockHash": "0xbba09ff6a0e37599b41f1d0fa2074e995cd18a8ac82c5d0ac3ee7c9a920c0c10",
          "blockNumber": "0x5d26d3",
          "transactionHash": "0x100a6ce69e012c4659ee2c14d00e2401e31094640ee40d7e9a081e799edc10a5",
          "transactionIndex": "0x38",
          "logIndex": "0x8c",
          "removed": false
        },
        {
          "address": "0x779877a7b0d9e8603169ddbd7836e478b4624789",
          "topics": [
            "0xe19260aff97b920c7df27010903aeb9c8d2be5d310a2c67824cf3f15396e4c16",
            "0x0000000000000000000000009c377256dfae057256fb94c7b3a2d1af6a1cc2c8",
            "0x0000000000000000000000008103b0a8a00be2ddc778e6e7eaa21791cd364625"
          ],
          "data": "0x00000000000000000000000000000000000000000000000029a2241af62c0000000000000000000000000000000000000000000000000000000000000000004000000000000000000000000000000000000000000000000000000000000000200000000000000000000000000000000000000000000000000000000000002e73",
          "blockHash": "0xbba09ff6a0e37599b41f1d0fa2074e995cd18a8ac82c5d0ac3ee7c9a920c0c10",
          "blockNumber": "0x5d26d3",
          "transactionHash": "0x100a6ce69e012c4659ee2c14d00e2401e31094640ee40d7e9a081e799edc10a5",
          "transactionIndex": "0x38",
          "logIndex": "0x8d",
          "removed": false
        },
        {
          "address": "0x8103b0a8a00be2ddc778e6e7eaa21791cd364625",
          "topics": [
            "0xd39ec07f4e209f627a4c427971473820dc129761ba28de8906bd56f57101d4f8",
            "0x0000000000000000000000000000000000000000000000000000000000002e73"
          ],
          "data": "0x000000000000000000000000000000000000000000000000000000000000000000000000000000000000000000000000000000000000000029a2241af62c0000",
          "blockHash": "0xbba09ff6a0e37599b41f1d0fa2074e995cd18a8ac82c5d0ac3ee7c9a920c0c10",
          "blockNumber": "0x5d26d3",
          "transactionHash": "0x100a6ce69e012c4659ee2c14d00e2401e31094640ee40d7e9a081e799edc10a5",
          "transactionIndex": "0x38",
          "logIndex": "0x8e",
          "removed": false
        }
      ],
      "logsBloom": "0x0200001400000000000000000000000000020000000000020000000002000000000000000000800000000000000000000000000000000000000000000000000000000000000000000000000800000000000000000000000000002000000000000000000000000000000000000010000000000000400000000000001000000000000000000c000020000000000000800010000020000000000000000000000000000000000000000000000000000000000001000000000000000400000000000000000002000000001000000000000000000000000000000100000000000000000000000000000000000000000000000000000000000000000000000000000800",
      "type": "0x2",
      "transactionHash": "0x100a6ce69e012c4659ee2c14d00e2401e31094640ee40d7e9a081e799edc10a5",
      "transactionIndex": "0x38",
      "blockHash": "0xbba09ff6a0e37599b41f1d0fa2074e995cd18a8ac82c5d0ac3ee7c9a920c0c10",
      "blockNumber": "0x5d26d3",
      "gasUsed": "0x12a4a",
      "effectiveGasPrice": "0x30f1f251c",
      "from": "0x9c377256dfae057256fb94c7b3a2d1af6a1cc2c8",
      "to": "0x779877a7b0d9e8603169ddbd7836e478b4624789",
      "contractAddress": null
    }
  ],
  "libraries": [],
  "pending": [],
  "returns": {},
  "timestamp": 1718351041,
  "chain": 11155111,
  "commit": "e975c00"
}